{
  "contractName": "CFPresale",
  "abi": [
    {
      "constant": false,
      "inputs": [],
      "name": "unpause",
      "outputs": [],
      "payable": false,
      "stateMutability": "nonpayable",
      "type": "function"
    },
    {
      "constant": true,
      "inputs": [
        {
          "name": "",
          "type": "address"
        }
      ],
      "name": "referrers",
      "outputs": [
        {
          "name": "",
          "type": "address"
        }
      ],
      "payable": false,
      "stateMutability": "view",
      "type": "function"
    },
    {
      "constant": true,
      "inputs": [],
      "name": "tokenContract",
      "outputs": [
        {
          "name": "",
          "type": "address"
        }
      ],
      "payable": false,
      "stateMutability": "view",
      "type": "function"
    },
    {
      "constant": true,
      "inputs": [],
      "name": "paused",
      "outputs": [
        {
          "name": "",
          "type": "bool"
        }
      ],
      "payable": false,
      "stateMutability": "view",
      "type": "function"
    },
    {
      "constant": false,
      "inputs": [],
      "name": "renounceOwnership",
      "outputs": [],
      "payable": false,
      "stateMutability": "nonpayable",
      "type": "function"
    },
    {
      "constant": false,
      "inputs": [],
      "name": "pause",
      "outputs": [],
      "payable": false,
      "stateMutability": "nonpayable",
      "type": "function"
    },
    {
      "constant": true,
      "inputs": [],
      "name": "owner",
      "outputs": [
        {
          "name": "",
          "type": "address"
        }
      ],
      "payable": false,
      "stateMutability": "view",
      "type": "function"
    },
    {
      "constant": true,
      "inputs": [],
      "name": "tokenOwner",
      "outputs": [
        {
          "name": "",
          "type": "address"
        }
      ],
      "payable": false,
      "stateMutability": "view",
      "type": "function"
    },
    {
      "constant": true,
      "inputs": [
        {
          "name": "",
          "type": "uint256"
        }
      ],
      "name": "prices",
      "outputs": [
        {
          "name": "",
          "type": "uint256"
        }
      ],
      "payable": false,
      "stateMutability": "view",
      "type": "function"
    },
    {
      "constant": false,
      "inputs": [
        {
          "name": "_newOwner",
          "type": "address"
        }
      ],
      "name": "transferOwnership",
      "outputs": [],
      "payable": false,
      "stateMutability": "nonpayable",
      "type": "function"
    },
    {
      "inputs": [
        {
          "name": "_tokenContract",
          "type": "address"
        },
        {
          "name": "_tokenOwner",
          "type": "address"
        }
      ],
      "payable": false,
      "stateMutability": "nonpayable",
      "type": "constructor"
    },
    {
      "anonymous": false,
      "inputs": [
        {
          "indexed": true,
          "name": "tokenId",
          "type": "uint256"
        },
        {
          "indexed": true,
          "name": "purchaser",
          "type": "address"
        },
        {
          "indexed": true,
          "name": "referrer",
          "type": "address"
        },
        {
          "indexed": false,
          "name": "price",
          "type": "uint256"
        }
      ],
      "name": "Purchase",
      "type": "event"
    },
    {
      "anonymous": false,
      "inputs": [
        {
          "indexed": false,
          "name": "owner",
          "type": "address"
        },
        {
          "indexed": false,
          "name": "balance",
          "type": "uint256"
        }
      ],
      "name": "Withdraw",
      "type": "event"
    },
    {
      "anonymous": false,
      "inputs": [],
      "name": "Pause",
      "type": "event"
    },
    {
      "anonymous": false,
      "inputs": [],
      "name": "Unpause",
      "type": "event"
    },
    {
      "anonymous": false,
      "inputs": [
        {
          "indexed": true,
          "name": "previousOwner",
          "type": "address"
        }
      ],
      "name": "OwnershipRenounced",
      "type": "event"
    },
    {
      "anonymous": false,
      "inputs": [
        {
          "indexed": true,
          "name": "previousOwner",
          "type": "address"
        },
        {
          "indexed": true,
          "name": "newOwner",
          "type": "address"
        }
      ],
      "name": "OwnershipTransferred",
      "type": "event"
    },
    {
      "constant": false,
      "inputs": [
        {
          "name": "_tokenId",
          "type": "uint256[]"
        },
        {
          "name": "_price",
          "type": "uint256[]"
        }
      ],
      "name": "setPrice",
      "outputs": [],
      "payable": false,
      "stateMutability": "nonpayable",
      "type": "function"
    },
    {
      "constant": false,
      "inputs": [
        {
          "name": "_tokenId",
          "type": "uint256"
        },
        {
          "name": "_referrer",
          "type": "address"
        }
      ],
      "name": "ethPurchase",
      "outputs": [],
      "payable": true,
      "stateMutability": "payable",
      "type": "function"
    },
    {
      "constant": false,
      "inputs": [],
      "name": "withdrawETH",
      "outputs": [],
      "payable": false,
      "stateMutability": "nonpayable",
      "type": "function"
    },
    {
      "constant": true,
      "inputs": [
        {
          "name": "_tokenIds",
          "type": "uint256[]"
        }
      ],
      "name": "itemBalances",
      "outputs": [
        {
          "name": "",
          "type": "uint256[]"
        }
      ],
      "payable": false,
      "stateMutability": "view",
      "type": "function"
    },
    {
      "constant": true,
      "inputs": [
        {
          "name": "_tokenIds",
          "type": "uint256[]"
        }
      ],
      "name": "itemPrices",
      "outputs": [
        {
          "name": "",
          "type": "uint256[]"
        }
      ],
      "payable": false,
      "stateMutability": "view",
      "type": "function"
    }
  ],
  "bytecode": "0x60806040526000805460a060020a60ff021916905534801561002057600080fd5b50604051604080610c5b83398101604052805160209091015160008054600160a060020a03191633179055600160a060020a03821615156100c257604080517f08c379a000000000000000000000000000000000000000000000000000000000815260206004820152601760248201527f546f6b656e20636f6e7472616374207265717569726564000000000000000000604482015290519081900360640190fd5b60038054600160a060020a03938416600160a060020a03199182161790915560048054929093169116179055610b5e806100fd6000396000f3006080604052600436106100da5763ffffffff7c01000000000000000000000000000000000000000000000000000000006000350416633f4ba83a81146100df5780633fdb1b27146100f65780634a3b68cc1461010d57806355a373d61461014a5780635c975abb1461015f5780636055e43914610188578063715018a61461022d5780638456cb59146102425780638da5cb5b146102575780639caf79c61461026c578063a3e67610146102c1578063bc31c1c1146102d6578063e086e5ec14610300578063e41f9ef314610315578063f2fde38b146103a3575b600080fd5b3480156100eb57600080fd5b506100f46103c4565b005b6100f4600435600160a060020a036024351661043a565b34801561011957600080fd5b5061012e600160a060020a0360043516610679565b60408051600160a060020a039092168252519081900360200190f35b34801561015657600080fd5b5061012e610694565b34801561016b57600080fd5b506101746106a3565b604080519115158252519081900360200190f35b34801561019457600080fd5b50604080516020600480358082013583810280860185019096528085526101dd953695939460249493850192918291850190849080828437509497506106b39650505050505050565b60408051602080825283518183015283519192839290830191858101910280838360005b83811015610219578181015183820152602001610201565b505050509050019250505060405180910390f35b34801561023957600080fd5b506100f46107d9565b34801561024e57600080fd5b506100f4610845565b34801561026357600080fd5b5061012e6108c0565b34801561027857600080fd5b50604080516020600480358082013583810280860185019096528085526101dd953695939460249493850192918291850190849080828437509497506108cf9650505050505050565b3480156102cd57600080fd5b5061012e61095b565b3480156102e257600080fd5b506102ee60043561096a565b60408051918252519081900360200190f35b34801561030c57600080fd5b506100f461097c565b34801561032157600080fd5b50604080516020600480358082013583810280860185019096528085526100f495369593946024949385019291829185019084908082843750506040805187358901803560208181028481018201909552818452989b9a998901989297509082019550935083925085019084908082843750949750610a1c9650505050505050565b3480156103af57600080fd5b506100f4600160a060020a0360043516610a92565b600054600160a060020a031633146103db57600080fd5b60005460a060020a900460ff1615156103f357600080fd5b6000805474ff0000000000000000000000000000000000000000191681556040517f7805862f689e2f13df9f062ff482ad3ad112aca9e0847911ed832e158c525b339190a1565b60008054819060a060020a900460ff161561045457600080fd5b600084815260016020526040812054925082116104d257604080517f08c379a000000000000000000000000000000000000000000000000000000000815260206004820152600f60248201527f496e76616c696420746f6b656e49640000000000000000000000000000000000604482015290519081900360640190fd5b34821461054057604080517f08c379a000000000000000000000000000000000000000000000000000000000815260206004820152600f60248201527f496e76616c6964207061796d656e740000000000000000000000000000000000604482015290519081900360640190fd5b5033600090815260026020526040902054600160a060020a03168015156105995750336000908152600260205260409020805473ffffffffffffffffffffffffffffffffffffffff1916600160a060020a038416179055815b60035460048054604080517ffe99049a000000000000000000000000000000000000000000000000000000008152600160a060020a039283169381019390935233602484015260448301889052600160648401525192169163fe99049a9160848082019260009290919082900301818387803b15801561061857600080fd5b505af115801561062c573d6000803e3d6000fd5b5050604080518581529051600160a060020a038516935033925087917fe3cf0e0098f447c6d9bc08ffbbf3f193d35c51b57d7de6bb9ccb79f4995ccf71919081900360200190a450505050565b600260205260009081526040902054600160a060020a031681565b600354600160a060020a031681565b60005460a060020a900460ff1681565b606080600083516040519080825280602002602001820160405280156106e3578160200160208202803883390190505b509150600090505b83518110156107d2576003548451600160a060020a0390911690633656eec29086908490811061071757fe5b602090810290910181015160048054604080517c010000000000000000000000000000000000000000000000000000000063ffffffff881602815292830193909352600160a060020a031660248201529051604480830193928290030181600087803b15801561078657600080fd5b505af115801561079a573d6000803e3d6000fd5b505050506040513d60208110156107b057600080fd5b505182518390839081106107c057fe5b602090810290910101526001016106eb565b5092915050565b600054600160a060020a031633146107f057600080fd5b60008054604051600160a060020a03909116917ff8df31144d9c2f0f6b59d69b8b98abd5459d07f2742c4df920b25aae33c6482091a26000805473ffffffffffffffffffffffffffffffffffffffff19169055565b600054600160a060020a0316331461085c57600080fd5b60005460a060020a900460ff161561087357600080fd5b6000805474ff0000000000000000000000000000000000000000191660a060020a1781556040517f6985a02210a168e66602d3235cb6db0e70f92b3ba4d376a33c0f3d9434bff6259190a1565b600054600160a060020a031681565b606080600083516040519080825280602002602001820160405280156108ff578160200160208202803883390190505b509150600090505b83518110156107d25760016000858381518110151561092257fe5b90602001906020020151815260200190815260200160002054828281518110151561094957fe5b60209081029091010152600101610907565b600454600160a060020a031681565b60016020526000908152604090205481565b60008054600160a060020a0316331461099457600080fd5b5060008054604051303192600160a060020a03909216916108fc841502918491818181858888f193505050501580156109d1573d6000803e3d6000fd5b5060005460408051600160a060020a0390921682526020820183905280517f884edad9ce6fa2440d8a54cc123490eb96d2768479d49ff9c7366125a94243649281900390910190a150565b60008054600160a060020a03163314610a3457600080fd5b5060005b8251811015610a8d578181815181101515610a4f57fe5b90602001906020020151600160008584815181101515610a6b57fe5b6020908102909101810151825281019190915260400160002055600101610a38565b505050565b600054600160a060020a03163314610aa957600080fd5b610ab281610ab5565b50565b600160a060020a0381161515610aca57600080fd5b60008054604051600160a060020a03808516939216917f8be0079c531659141344cd1fd0a4f28419497f9722a3daafe3b4186f6b6457e091a36000805473ffffffffffffffffffffffffffffffffffffffff1916600160a060020a03929092169190911790555600a165627a7a723058206ad5c09dd4584d863c2df6d166af8016b18efd390b0404c367c1a31b8e837f120029",
  "source": "pragma solidity 0.4.24;\n\nimport \"./interfaces/IERC1155.sol\";\nimport \"./zeppelin/lifecycle/Pausable.sol\";\n\ncontract CFPresale is Pausable {\n    mapping(uint => uint) public prices;\n    mapping(address => address) public referrers;\n\n    IERC1155 public tokenContract;\n    address public tokenOwner;\n\n    event Purchase(\n        uint indexed tokenId,\n        address indexed purchaser,\n        address indexed referrer,\n        uint price\n    );\n\n    event Withdraw(address owner, uint balance);\n\n    constructor(address _tokenContract, address _tokenOwner) public Ownable() {\n        require(_tokenContract != address(0), \"Token contract required\");\n        tokenContract = IERC1155(_tokenContract);\n        tokenOwner = _tokenOwner;\n    }\n\n    function setPrice(uint[] _tokenId, uint[] _price) public onlyOwner {\n        for(uint i = 0; i < _tokenId.length; i++) {\n            prices[_tokenId[i]] = _price[i];\n        }\n    }\n\n    function ethPurchase(uint _tokenId, address _referrer) public whenNotPaused payable {\n        uint price = prices[_tokenId];\n        require(price > 0, \"Invalid tokenId\");\n        require(msg.value == price, \"Invalid payment\");\n\n        address referrer = referrers[msg.sender];\n        if(referrer == address(0)){\n            referrer = _referrer;\n            referrers[msg.sender] = referrer;\n        }\n        tokenContract.transferFrom(tokenOwner, msg.sender, _tokenId, 1);\n\n        emit Purchase(_tokenId, msg.sender, referrer, price);\n    }\n\n    function withdrawETH() public onlyOwner {\n        uint balance = address(this).balance;\n        owner.transfer(balance);\n\n        emit Withdraw(owner, balance);\n    }\n\n    function itemBalances(uint[] _tokenIds) public view returns(uint[]) {\n        uint[] memory balances = new uint[](_tokenIds.length);\n        for(uint i = 0; i < _tokenIds.length; i++) {\n            balances[i] = tokenContract.balanceOf(_tokenIds[i], tokenOwner);\n        }\n        return balances;\n    }\n\n    function itemPrices(uint[] _tokenIds) public view returns(uint[]) {\n        uint[] memory _prices = new uint[](_tokenIds.length);\n        for(uint i = 0; i < _tokenIds.length; i++) {\n            _prices[i] = prices[_tokenIds[i]];\n        }\n        return _prices;\n    }\n\n\n}",
  "sourcePath": "/Users/davidcase/Source/CryptoFights_Contracts/contracts/CFPresale.sol",
  "compiler": {
    "name": "solc",
    "version": "0.4.24+commit.e67f0147.Emscripten.clang"
  },
  "schemaVersion": "2.0.1",
  "updatedAt": "2018-09-12T22:33:57.271Z"
}